:020000040000FA
:1000000098020010690100007101000073010000F6
:100010007501000077010000790100000000000078
:100020000000000000000000000000007B01000054
:100030007D010000000000007F0100008101000040
:1000400083010000830100008301000083010000A0
:100050008301000083010000830100008301000090
:100060008301000083010000830100008301000080
:100070008301000083010000830100008301000070
:100080008301000083010000830100008301000060
:100090008301000083010000830100008301000050
:1000A0008301000083010000830100008301000040
:1000B0008301000083010000830100008301000030
:1000C00083010000830100008301000000F002F8BA
:1000D00000F03AF80AA090E8000C82448344AAF1A8
:1000E0000107DA4501D100F02FF8AFF2090EBAE8A6
:1000F0000F0013F0010F18BFFB1A43F0010318475C
:10010000C80F0000E80F0000103A24BF78C878C17B
:10011000FAD8520724BF30C830C144BF04680C600D
:10012000704700000023002400250026103A28BF55
:1001300078C1FBD8520728BF30C148BF0B60704759
:100140001FB51FBD10B510BD00F0A6F81146FFF792
:10015000F7FF00F050FB00F0C4F803B4FFF7F2FF24
:1001600003BC00F04FFC00000948804709480047E5
:10017000FEE7FEE7FEE7FEE7FEE7FEE7FEE7FEE757
:10018000FEE7FEE704480549034A054B70470000B7
:10019000A9040000CD000000980000109802001093
:1001A0009800001053EA020C00F069802DE9F04B32
:1001B0004FF00006002B1FBFB3FA83F503FA05F4D6
:1001C00024FA05F65E4012BF1643B2FA82F502FA2F
:1001D00005F4C5F120051EBF22FA05FC44EA0C0413
:1001E000203556EA044C4FEA144418BF641C4FF003
:1001F00000084FF00009904271EB030C39D300293D
:1002000019BFB1FA81F701FA07F6B0FA80F700FAE0
:1002100007F6C7F120071EBF20FA07FC46EA0C06C6
:100220002037B6FBF4FCA7EB0507103F07F01F0BC8
:10023000CBF120060CFA0BFB2CFA06F644BFB346B2
:100240000026202FA4BF5E464FF0000B5BEA060C91
:1002500008BF4FF0010B19EB0B09ABFB027C48EB1D
:100260000608C01B06FB02CC0BFB03CC71EB0C0198
:10027000C1E70B46024641464846BDE8F08B13B540
:100280004FF000004FF00001AFF30080BDE81C40CC
:100290007047704770477047754600F029F8AE46C2
:1002A00005006946534620F00700854618B020B582
:1002B000FFF768FFBDE820404FF000064FF0000751
:1002C0004FF000084FF0000B21F00701AC46ACE8FE
:1002D000C009ACE8C009ACE8C009ACE8C0098D466B
:1002E00070470446AFF300802046FFF736FF00005A
:1002F000004870473800001070470000FFFFFFFF04
:100300002DE9F047B1480068C0F3016003287CD1B3
:10031000AF48006810F0030006D0012833D002284F
:100320005FD003282ED100E000BFA8480068C0F3CA
:10033000074000F101044FF00201A648D0F8880000
:10034000C0F30E0000F10100A1FB0001A24B4FF031
:10035000000CA0FB037901FB039100FB0C1122466A
:1003600063463846FFF71EFF05469C480068C0B24A
:1003700000F1010422464FF000032846FFF712FF68
:10038000974908605DE091480068C0F3074000F1BC
:1003900001044FF002018F48D0F88800C0F30E002E
:1003A00000F10100A1FB00108E4A4FF0000CA1FBF0
:1003B000027900FB029001FB0C012246634638469D
:1003C000FFF7F0FE054685480068C0B200F1010461
:1003D00022464FF000032846FFF7E4FE80490860FC
:1003E0002FE07A480068C0F3074000F101044FF0A5
:1003F00002017848D0F88800C0F30E0000F1010037
:10040000A1FB00124FF4004000E01BE04FF000039E
:10041000A1FB007902FB009001FB03012246384654
:10042000FFF7C0FE05466D480068C0B200F1010448
:1004300022464FF000032846FFF7B4FE68490860E3
:1004400000BF2FE06248006810F0030006D00128CA
:1004500010D0022819D0032823D100E000BF5F4844
:100460000068C0B200F101005B49B1FBF0F05C49EB
:10047000086016E059480068C0B200F1010059490F
:10048000B1FBF0F0564908600BE054480068C0B278
:1004900000F101004FF40041B1FBF0F05049086059
:1004A00000BF00BFBDE8F08720204F4908604948E1
:1004B000D0F8A00110F0200F05D000BF4A48006816
:1004C00010F0400FFAD00320444908604FF00000BC
:1004D0004049C1F8A801454908604FF001003C4976
:1004E00008604348434908604FF0AA004249086049
:1004F0004FF0550008604FF00100404908604FF090
:10050000AA003D4908604FF055003249C1F88C00FF
:1005100000BF2E48006810F0806FFAD003203749E2
:1005200008604FF0AA002B49C1F88C004FF055002D
:100530003149086000BF2548006800F04070B0F104
:10054000407FF8D123202E4908604FF0AA002149AE
:10055000C1F8AC004FF055002A4908604FF0010087
:10056000294908604FF0AA00264908604FF055005D
:100570001849C1F8AC0000BF2448006810F4806F2F
:10058000FAD00320204908604FF0AA001149C1F8B1
:10059000AC004FF055001B49086000BF1B480068C5
:1005A00000F44070B0F5407FF8D11948194908604F
:1005B0004FF000000749C1F8C8010846006820F460
:1005C000704040F4804008607047000088C00F40D1
:1005D0000CC10F4000C00F4000093D0004C10F4096
:1005E00000000010001BB700A0C10F40ACC10F40BD
:1005F0006300050084C00F408CC00F4080C00F40D6
:10060000A4C00F40ACC00F40A0C00F40A8C00F4016
:10061000DE872804C4C00F4002214FF04022516001
:1006200000211167042151612021D16311468861A5
:1006300041F63F71D1600121516000BF4FF0402170
:10064000C96B11F0010FF9D0704708B50021009176
:1006500002E00099491C009100998142F9D308BD3C
:100660004FF48070D24908600020D24908601DE034
:10067000CF4800684008CE49086008460068C0437B
:10068000CD4948610020CD49086004E0CB480068AE
:10069000401CCA490860C948006846F2A81188424F
:1006A000F4D3C4480068401CC2490860C1480068CF
:1006B0000428DDD370470820BD4908600020BD49EB
:1006C00008601DE0BA4800684000B9490860084663
:1006D0000068C043B84948610020B849086004E098
:1006E000B6480068401CB5490860B448006846F246
:1006F000A8118842F4D3AF480068401CAD49086097
:10070000AC4800680428DDD3704700B50246012AD2
:1007100015D1A948406940F0F000A7494861002080
:10072000A749086006E0FFF7C6FFA5480068401C1F
:10073000A3490860A24800689628F4D31CE0AAB92F
:100740009D48406940F0F0009B49486100209C4969
:10075000086006E0FFF784FF99480068401C98494C
:100760000860974800680328F4D305E09248406980
:1007700020F0FF009049486100BD10B500204FF007
:1007800040214860886800F00BFC10BD02204FF04B
:10079000402148600120486070478A49096821F07B
:1007A0000C01894AC2F8A8114FF002014FF0402213
:1007B00051604FF00001D160A0F1010191614FF053
:1007C00001015161516000BF4FF04021096811F0F3
:1007D000010FF9D000214FF040225160012111603A
:1007E000704700204FF0402108677848C860022019
:1007F000486048607047FFF757FEFFF781FDFFF73D
:10080000F0FF734800687349084071490860084662
:10081000406820F0030048600846C0680020C860B7
:1008200008460069002008616348006A624908625E
:100830000846006840F4004008600846006C40F438
:10084000705008640846006840F070000860084670
:10085000006840F4807008600846006840F0F000CE
:1008600008604FF40040C861A1E04FF400405249D5
:1008700088610A20FFF791FF4FF400404E49C8619C
:1008800000BF4D48406910F4803FFAD0FFF77EFF6B
:1008900000BF4948406910F4803FFAD1FFF76DFF6F
:1008A000044600F061FB4C4908600846006800F00F
:1008B00039FA0646494A4A4B00F04CFA04460022EF
:1008C000484B00F0D7F8804600F0A2F8464908608F
:1008D00046494548006800F077FB0DD2444800784F
:1008E000A0B94FF4807034498861012040490870F4
:1008F00000204049086009E03D480078012805D102
:1009000002203B49087000203B49086038480078C5
:10091000012804D0022816D0032843D126E0354808
:100920000068322808DA0120FFF7EFFE314800683E
:10093000401C3049086005E002202D490870002065
:100940002C4908602FE02D48FFF77FFE2A480068F9
:10095000401C2949086008460068042805DB03207C
:10096000234908700020234908601CE021480068E2
:10097000322808DA0020FFF7C8FE1E480068401C35
:100980001C4908600DE04FF0FF30FFF7BEFE00206D
:10099000174908704FF480700749C8610020154955
:1009A000086000E000BF00BF1548FFF74EFE5CE79F
:1009B000180000101C00001000C0092024000010C6
:1009C00020000010A8C10F4000C00F40FF1AB70060
:1009D00000C00240FFC0FF3F04000010006F810410
:1009E000C58FA13F000044400800001000002042D5
:1009F0000C0000101000001014000010C0CF6A009E
:100A0000C057010001491820ABBEFEE726000200D6
:100A100021F00042A2F16052B2F5801F01F00043C4
:100A200028BFD2F17F6C0BD95FEA001C43EAC202F7
:100A300042EB507018BF704728BF20F0010070478C
:100A4000B2F5801FBCBF184670474FEA410C1CF539
:100A5000001F02D2084600F031BB70B500F024FA46
:100A600000000089FFF7F6BF4FF00040A0F58000BE
:100A7000704700002DE9C04130B4DFF8A0C23CEA65
:100A8000111418BF3CEA131400F0EC8081EA03054E
:100A90001CEA111444EAD57418BF1CEA131500F0BF
:100AA000C780A4EB05044FF0004545EAC12145EAA3
:100AB000C32341EA505143EA525304F17F749942EF
:100AC00004F500344FEAC0204FEAC22208BF90422A
:100AD00000F09C804FEA13650FF24016765D4FEAF6
:100AE000134506FB05F7C7F1807706FB07F74FEACA
:100AF000D737A7FB03687642C8F58038A7FB06CE38
:100B000038BFA8F1010807FB08E64FF0000EA6FB6E
:100B1000028CE6FB03CEDCF1000CCEF1004E38BFB8
:100B2000AEF1010EA6FB0C584FF000074FF0000588
:100B3000E6FB0E87A1FB08C6A0FB07CE16EB0E0650
:100B400045F10005E1FB076515F1E04E7EBFA4F518
:100B500080345FEA46066D4116F1800745F10005D5
:100B60004FEA17274FEA066647EA0567A6F1DE4611
:100B7000B6F1805F4FEA15251FD9384624F0010CE5
:100B800005EBC471BCF1FE6F01EB0C1102D8F0BC97
:100B9000BDE8008124425CBF01F5801E9EEAC47F4F
:100BA00002D4F0BCBDE80081244238D4F0BCA1F1ED
:100BB000C041BDE8004100F0C5B94FEAD22242EA87
:100BC00043524FEAD323A7FB02864FEAD02040EAE4
:100BD000415007FB03661EEA0E0F4FEAD12105FBC9
:100BE000026658BFA6EB0056B6EB00564FEA520E0F
:100BF0004EEAC37E18EB0E0E56EB530EBDD518EB26
:100C000002085E417F1C55F10005B6E74FF48015E0
:100C10004FF000074FF000064FF00008ADE7F0BCC2
:100C20004FF0000001F1C04101F00041BDE800813A
:100C300011EA0C1F0CEA131500D00CE013EA0C1F8C
:100C400000F025804FF00000F0BC81EA030101F0C4
:100C50000041BDE80081F0BCBDE8004181EA03012C
:100C600000F070B9F0BCBDE8004170B500F01CF9AF
:100C7000097EFC3E00F007B881EA03014FF0000056
:100C800001F00041704781EA030100F05BB9F0BC5C
:100C9000BDE800414FF0000021497047FFFDFBF91E
:100CA000F7F5F4F2F0EEEDEBE9E8E6E4E3E1E0DE9F
:100CB000DDDBDAD8D7D5D4D3D1D0CFCDCCCBCAC811
:100CC000C7C6C5C4C2C1C0BFBEBDBCBBBAB9B8B738
:100CD000B6B5B4B3B2B1B0AFAEADACABAAA9A8A82B
:100CE000A7A6A5A4A3A3A2A1A09F9F9E9D9C9C9BF9
:100CF0009A999998979796959594939392919190A4
:100D00008F8F8E8E8D8C8C8B8B8A89898888878734
:100D10008685858484838382828181800000FF07A9
:100D20000000F87F10F0004248BF4042B0FA80F364
:100D300010FA03F10AD0C3F11D0303F580634FEAF3
:100D4000415002EB035202EBD12170474FF00000FB
:100D500070470000DFF848C170B51CEA111E1EBFC5
:100D60001CEA13159EEA0C0F95EA0C0F00F06F8039
:100D700081EA030423EA4C134EEAD47E21EA4C11A3
:100D800041F4801143F48013AE44A1FB024CA0FB5C
:100D90000365AEF17F7E361955EB0C05A1FB034CC4
:100DA0004CF10003A0FB021C16EB0C06654153F14D
:100DB0000003094218BF46F0010613F4007F0BD16F
:100DC0004FEA03314FEA0530340341EA155140EA56
:100DD00016506FF003020AE04FEAC3214FEAC52024
:100DE000F40241EA555140EA56506FF0020202EB1C
:100DF0002E4201EB025585EACE710AD05FEA440C1F
:100E000018BF24F0004450F1000041F1000120EA35
:100E1000D47040F2FE7C624500D270BDA84214BF7F
:100E20004FF080444FF04044002E08BF0024BEF134
:100E3000806FA8BFA1F1C041BDE8704080F2828000
:100E40004FF0000001F1C04101F0004170479EEAFF
:100E50000C0F0CEA131518BF95EA0C0F06D04FF0D3
:100E6000000081EA030E0EF0004170BD00F01CF896
:100E70008900013E00F007B800F009B84FEA430CC2
:100E80005FEA5C5C08D081EA030100F05BB84FEADE
:100E9000410C5FEA5C5CF6D14FF0000001497047FD
:100EA0000000FF070000F87F0EF1020E2EF0030E87
:100EB0005EF8046B364205D4012A43EB030515F5B1
:100EC000001F12D8012841EB010C1CF5001F0CD8A3
:100ED0000ED14FEAD17C15F5001F0CEB4C0C0CF138
:100EE000020C08BF4CEBD37C04E04FF0080C01E08F
:100EF0004FEAD37C0CEB4C0526FA05F606F0070604
:100F0000B6F1040C06D20EEB860CBDE870404CF036
:100F1000010C6047DFE80CF0090B02024FF00041C2
:100F20004FF00000A1F5002170BD194610460128C0
:100F300051EB010418BFD4F5001484BF002001F068
:100F4000004170BD0808A0F500114FEA310170475B
:100F5000401058BFC0F14040491058BFC1F1404156
:100F60008142EFF30080704741000B0ED3F19E02E7
:100F700008D950F400034FEA032323FA02F048BFD4
:100F80004042704710B500F053F800BF49922480EA
:100F9000002070476FF0004282EA20007047000096
:100FA000B0FA80F310FA03F2C3F19D030AD0D90519
:100FB00001EB1220530638BF704700F1010008BF53
:100FC00020F001007047000050EA010C00F113808E
:100FD0001CF5000F58BFBCF5000F01D488427047C4
:100FE00007D710F5000F58BF11F5000F15D4884230
:100FF0007047894270471CF5000F04D5BCF5000FFF
:10100000F7D5814270474FF0807C1CEB400F38BF12
:101010001CEB410F01D28142704710B500F008F877
:10102000922449004FF000504FF08051FFF790BFDD
:101030000EF1020E2EF0030E5EF8044B244204D48F
:101040004FEA4102B2F17F4F11D84FEA4003B3F1AA
:101050007F4F0CD80ED14FEAD07CB2F17F4F0CEB12
:101060004C0C0CF1020C08BF4CEBD17C04E04FF0AF
:10107000080C01E04FEAD17C0CEB4C0324FA03F49A
:1010800004F00704B4F1040C06D20EEB840CBDE8A6
:1010900010404CF0010C6047DFE80CF0070802023A
:1010A0004FF00040A0F5800010BD0846420018BF78
:1010B000D2F1807288BF00F0004010BDFF2141EAEC
:1010C000D050C00570470000E8100000000000107C
:1010D0003800000008010000201100003800001056
:1010E000600200002401000000E1F5058813000003
:1010F00000000000000000000000000000000000F0
:1011000000000000000000000000000000000000DF
:1011100000000000000000000000000000000000CF
:04000005000001698D
:00000001FF
